{
  "_format": "hh-sol-artifact-1",
  "contractName": "PollFactory",
  "sourceName": "contracts/Factory.sol",
  "abi": [
    {
      "anonymous": false,
      "inputs": [
        {
          "indexed": false,
          "internalType": "uint256",
          "name": "pollIndex",
          "type": "uint256"
        },
        {
          "indexed": false,
          "internalType": "string",
          "name": "proposal",
          "type": "string"
        }
      ],
      "name": "PollCreated",
      "type": "event"
    },
    {
      "anonymous": false,
      "inputs": [
        {
          "indexed": false,
          "internalType": "uint256",
          "name": "pollIndex",
          "type": "uint256"
        },
        {
          "indexed": false,
          "internalType": "address",
          "name": "voter",
          "type": "address"
        }
      ],
      "name": "VoteCast",
      "type": "event"
    },
    {
      "anonymous": false,
      "inputs": [
        {
          "indexed": false,
          "internalType": "uint256",
          "name": "pollIndex",
          "type": "uint256"
        }
      ],
      "name": "VotingFinished",
      "type": "event"
    },
    {
      "inputs": [
        {
          "internalType": "uint256",
          "name": "_pollIndex",
          "type": "uint256"
        },
        {
          "internalType": "uint256",
          "name": "_optionIndex",
          "type": "uint256"
        }
      ],
      "name": "castVote",
      "outputs": [],
      "stateMutability": "nonpayable",
      "type": "function"
    },
    {
      "inputs": [
        {
          "internalType": "string",
          "name": "_proposal",
          "type": "string"
        },
        {
          "internalType": "uint256",
          "name": "_duration",
          "type": "uint256"
        }
      ],
      "name": "createPoll",
      "outputs": [],
      "stateMutability": "nonpayable",
      "type": "function"
    },
    {
      "inputs": [
        {
          "internalType": "uint256",
          "name": "_pollIndex",
          "type": "uint256"
        }
      ],
      "name": "endVote",
      "outputs": [],
      "stateMutability": "nonpayable",
      "type": "function"
    },
    {
      "inputs": [
        {
          "internalType": "uint256",
          "name": "_pollIndex",
          "type": "uint256"
        }
      ],
      "name": "getPollData",
      "outputs": [
        {
          "internalType": "string",
          "name": "",
          "type": "string"
        },
        {
          "internalType": "uint256",
          "name": "",
          "type": "uint256"
        },
        {
          "internalType": "uint256",
          "name": "",
          "type": "uint256"
        },
        {
          "internalType": "uint256",
          "name": "",
          "type": "uint256"
        },
        {
          "internalType": "bool",
          "name": "",
          "type": "bool"
        }
      ],
      "stateMutability": "view",
      "type": "function"
    },
    {
      "inputs": [
        {
          "internalType": "uint256",
          "name": "",
          "type": "uint256"
        }
      ],
      "name": "polls",
      "outputs": [
        {
          "internalType": "string",
          "name": "proposal",
          "type": "string"
        },
        {
          "internalType": "uint256",
          "name": "yesCount",
          "type": "uint256"
        },
        {
          "internalType": "uint256",
          "name": "noCount",
          "type": "uint256"
        },
        {
          "internalType": "bool",
          "name": "locked",
          "type": "bool"
        },
        {
          "internalType": "uint256",
          "name": "lockTime",
          "type": "uint256"
        }
      ],
      "stateMutability": "view",
      "type": "function"
    }
  ],
  "bytecode": "0x608060405234801561001057600080fd5b5061154d806100206000396000f3fe608060405234801561001057600080fd5b50600436106100575760003560e01c80632c0a3f891461005c578063865df0ad14610078578063ac2f007414610094578063bc215a8e146100c8578063c7449cb7146100fc575b600080fd5b61007660048036038101906100719190610aee565b610118565b005b610092600480360381019061008d9190610b2e565b610363565b005b6100ae60048036038101906100a99190610b2e565b6104fd565b6040516100bf959493929190610c15565b60405180910390f35b6100e260048036038101906100dd9190610b2e565b6105d8565b6040516100f3959493929190610c6f565b60405180910390f35b61011660048036038101906101119190610dfe565b610790565b005b600080549050821061015f576040517f08c379a000000000000000000000000000000000000000000000000000000000815260040161015690610ea6565b60405180910390fd5b6000828154811061017357610172610ec6565b5b906000526020600020906006020160030160009054906101000a900460ff16156101d2576040517f08c379a00000000000000000000000000000000000000000000000000000000081526004016101c990610f41565b60405180910390fd5b6101dc8233610908565b1561021c576040517f08c379a000000000000000000000000000000000000000000000000000000000815260040161021390610fad565b60405180910390fd5b600082815481106102305761022f610ec6565b5b9060005260206000209060060201600501339080600181540180825580915050600190039060005260206000200160009091909190916101000a81548173ffffffffffffffffffffffffffffffffffffffff021916908373ffffffffffffffffffffffffffffffffffffffff160217905550600081036102ea57600082815481106102be576102bd610ec6565b5b906000526020600020906006020160020160008154809291906102e090610ffc565b9190505550610326565b600082815481106102fe576102fd610ec6565b5b9060005260206000209060060201600101600081548092919061032090610ffc565b91905055505b7ff1003b73c437642c0460aee9cd9628b0b8c447b66e6c7c905531b9c644214a118233604051610357929190611085565b60405180910390a15050565b60008054905081106103aa576040517f08c379a00000000000000000000000000000000000000000000000000000000081526004016103a190610ea6565b60405180910390fd5b600081815481106103be576103bd610ec6565b5b906000526020600020906006020160030160009054906101000a900460ff161561041d576040517f08c379a0000000000000000000000000000000000000000000000000000000008152600401610414906110fa565b60405180910390fd5b6000818154811061043157610430610ec6565b5b906000526020600020906006020160040154421015610485576040517f08c379a000000000000000000000000000000000000000000000000000000000815260040161047c90611166565b60405180910390fd5b60016000828154811061049b5761049a610ec6565b5b906000526020600020906006020160030160006101000a81548160ff0219169083151502179055507f67dd2327eccab76e56070d042e4c2137556510de5aa667f62bf6145d678b9db9816040516104f29190611186565b60405180910390a150565b6000818154811061050d57600080fd5b9060005260206000209060060201600091509050806000018054610530906111d0565b80601f016020809104026020016040519081016040528092919081815260200182805461055c906111d0565b80156105a95780601f1061057e576101008083540402835291602001916105a9565b820191906000526020600020905b81548152906001019060200180831161058c57829003601f168201915b5050505050908060010154908060020154908060030160009054906101000a900460ff16908060040154905085565b60606000806000806000805490508610610627576040517f08c379a000000000000000000000000000000000000000000000000000000000815260040161061e90610ea6565b60405180910390fd5b6000868154811061063b5761063a610ec6565b5b9060005260206000209060060201600001600087815481106106605761065f610ec6565b5b9060005260206000209060060201600101546000888154811061068657610685610ec6565b5b906000526020600020906006020160020154600089815481106106ac576106ab610ec6565b5b90600052602060002090600602016004015460008a815481106106d2576106d1610ec6565b5b906000526020600020906006020160030160009054906101000a900460ff168480546106fd906111d0565b80601f0160208091040260200160405190810160405280929190818152602001828054610729906111d0565b80156107765780601f1061074b57610100808354040283529160200191610776565b820191906000526020600020905b81548152906001019060200180831161075957829003601f168201915b505050505094509450945094509450945091939590929450565b60006040518060c00160405280848152602001600081526020016000815260200160001515815260200183426107c69190611201565b8152602001600067ffffffffffffffff8111156107e6576107e5610cd3565b5b6040519080825280602002602001820160405280156108145781602001602082028036833780820191505090505b5081525090506000819080600181540180825580915050600190039060005260206000209060060201600090919091909150600082015181600001908161085b91906113e1565b50602082015181600101556040820151816002015560608201518160030160006101000a81548160ff0219169083151502179055506080820151816004015560a08201518160050190805190602001906108b69291906109fd565b5050507f65d5ac2bf1bca69566bef1affdfca5bb37b9577fc0b3af4c7c4638225e67b39c60016000805490506108ec91906114b3565b846040516108fb9291906114e7565b60405180910390a1505050565b600080600090505b6000848154811061092457610923610ec6565b5b9060005260206000209060060201600501805490508110156109f1578273ffffffffffffffffffffffffffffffffffffffff166000858154811061096b5761096a610ec6565b5b9060005260206000209060060201600501828154811061098e5761098d610ec6565b5b9060005260206000200160009054906101000a900473ffffffffffffffffffffffffffffffffffffffff1673ffffffffffffffffffffffffffffffffffffffff16036109de5760019150506109f7565b80806109e990610ffc565b915050610910565b50600090505b92915050565b828054828255906000526020600020908101928215610a76579160200282015b82811115610a755782518260006101000a81548173ffffffffffffffffffffffffffffffffffffffff021916908373ffffffffffffffffffffffffffffffffffffffff16021790555091602001919060010190610a1d565b5b509050610a839190610a87565b5090565b5b80821115610aa0576000816000905550600101610a88565b5090565b6000604051905090565b600080fd5b600080fd5b6000819050919050565b610acb81610ab8565b8114610ad657600080fd5b50565b600081359050610ae881610ac2565b92915050565b60008060408385031215610b0557610b04610aae565b5b6000610b1385828601610ad9565b9250506020610b2485828601610ad9565b9150509250929050565b600060208284031215610b4457610b43610aae565b5b6000610b5284828501610ad9565b91505092915050565b600081519050919050565b600082825260208201905092915050565b60005b83811015610b95578082015181840152602081019050610b7a565b60008484015250505050565b6000601f19601f8301169050919050565b6000610bbd82610b5b565b610bc78185610b66565b9350610bd7818560208601610b77565b610be081610ba1565b840191505092915050565b610bf481610ab8565b82525050565b60008115159050919050565b610c0f81610bfa565b82525050565b600060a0820190508181036000830152610c2f8188610bb2565b9050610c3e6020830187610beb565b610c4b6040830186610beb565b610c586060830185610c06565b610c656080830184610beb565b9695505050505050565b600060a0820190508181036000830152610c898188610bb2565b9050610c986020830187610beb565b610ca56040830186610beb565b610cb26060830185610beb565b610cbf6080830184610c06565b9695505050505050565b600080fd5b600080fd5b7f4e487b7100000000000000000000000000000000000000000000000000000000600052604160045260246000fd5b610d0b82610ba1565b810181811067ffffffffffffffff82111715610d2a57610d29610cd3565b5b80604052505050565b6000610d3d610aa4565b9050610d498282610d02565b919050565b600067ffffffffffffffff821115610d6957610d68610cd3565b5b610d7282610ba1565b9050602081019050919050565b82818337600083830152505050565b6000610da1610d9c84610d4e565b610d33565b905082815260208101848484011115610dbd57610dbc610cce565b5b610dc8848285610d7f565b509392505050565b600082601f830112610de557610de4610cc9565b5b8135610df5848260208601610d8e565b91505092915050565b60008060408385031215610e1557610e14610aae565b5b600083013567ffffffffffffffff811115610e3357610e32610ab3565b5b610e3f85828601610dd0565b9250506020610e5085828601610ad9565b9150509250929050565b7f496e76616c696420706f6c6c20696e6465782e00000000000000000000000000600082015250565b6000610e90601383610b66565b9150610e9b82610e5a565b602082019050919050565b60006020820190508181036000830152610ebf81610e83565b9050919050565b7f4e487b7100000000000000000000000000000000000000000000000000000000600052603260045260246000fd5b7f566f74696e672068617320656e6465642e000000000000000000000000000000600082015250565b6000610f2b601183610b66565b9150610f3682610ef5565b602082019050919050565b60006020820190508181036000830152610f5a81610f1e565b9050919050565b7f596f75206861766520616c726561647920766f7465642e000000000000000000600082015250565b6000610f97601783610b66565b9150610fa282610f61565b602082019050919050565b60006020820190508181036000830152610fc681610f8a565b9050919050565b7f4e487b7100000000000000000000000000000000000000000000000000000000600052601160045260246000fd5b600061100782610ab8565b91507fffffffffffffffffffffffffffffffffffffffffffffffffffffffffffffffff820361103957611038610fcd565b5b600182019050919050565b600073ffffffffffffffffffffffffffffffffffffffff82169050919050565b600061106f82611044565b9050919050565b61107f81611064565b82525050565b600060408201905061109a6000830185610beb565b6110a76020830184611076565b9392505050565b7f566f74696e672068617320616c726561647920656e6465642e00000000000000600082015250565b60006110e4601983610b66565b91506110ef826110ae565b602082019050919050565b60006020820190508181036000830152611113816110d7565b9050919050565b7f566f74696e6720706572696f6420686173206e6f742079657420656e6465642e600082015250565b6000611150602083610b66565b915061115b8261111a565b602082019050919050565b6000602082019050818103600083015261117f81611143565b9050919050565b600060208201905061119b6000830184610beb565b92915050565b7f4e487b7100000000000000000000000000000000000000000000000000000000600052602260045260246000fd5b600060028204905060018216806111e857607f821691505b6020821081036111fb576111fa6111a1565b5b50919050565b600061120c82610ab8565b915061121783610ab8565b925082820190508082111561122f5761122e610fcd565b5b92915050565b60008190508160005260206000209050919050565b60006020601f8301049050919050565b600082821b905092915050565b6000600883026112977fffffffffffffffffffffffffffffffffffffffffffffffffffffffffffffffff8261125a565b6112a1868361125a565b95508019841693508086168417925050509392505050565b6000819050919050565b60006112de6112d96112d484610ab8565b6112b9565b610ab8565b9050919050565b6000819050919050565b6112f8836112c3565b61130c611304826112e5565b848454611267565b825550505050565b600090565b611321611314565b61132c8184846112ef565b505050565b5b8181101561135057611345600082611319565b600181019050611332565b5050565b601f8211156113955761136681611235565b61136f8461124a565b8101602085101561137e578190505b61139261138a8561124a565b830182611331565b50505b505050565b600082821c905092915050565b60006113b86000198460080261139a565b1980831691505092915050565b60006113d183836113a7565b9150826002028217905092915050565b6113ea82610b5b565b67ffffffffffffffff81111561140357611402610cd3565b5b61140d82546111d0565b611418828285611354565b600060209050601f83116001811461144b5760008415611439578287015190505b61144385826113c5565b8655506114ab565b601f19841661145986611235565b60005b828110156114815784890151825560018201915060208501945060208101905061145c565b8683101561149e578489015161149a601f8916826113a7565b8355505b6001600288020188555050505b505050505050565b60006114be82610ab8565b91506114c983610ab8565b92508282039050818111156114e1576114e0610fcd565b5b92915050565b60006040820190506114fc6000830185610beb565b818103602083015261150e8184610bb2565b9050939250505056fea26469706673582212207415c440dec49ca5df9aa2fe0d25177246bc5fae7a55b697db3a18dcc2044edf64736f6c63430008120033",
  "linkReferences": {},
  "deployedLinkReferences": {}
}