{
  "_format": "hh-sol-artifact-1",
  "contractName": "Poll",
  "sourceName": "contracts/Voting.sol",
  "abi": [
    {
      "inputs": [
        {
          "internalType": "string",
          "name": "_proposal",
          "type": "string"
        }
      ],
      "stateMutability": "nonpayable",
      "type": "constructor"
    },
    {
      "anonymous": false,
      "inputs": [
        {
          "indexed": false,
          "internalType": "address",
          "name": "voter",
          "type": "address"
        }
      ],
      "name": "VoteCast",
      "type": "event"
    },
    {
      "anonymous": false,
      "inputs": [],
      "name": "VotingFinished",
      "type": "event"
    },
    {
      "inputs": [
        {
          "internalType": "uint256",
          "name": "_optionIndex",
          "type": "uint256"
        }
      ],
      "name": "castVote",
      "outputs": [],
      "stateMutability": "nonpayable",
      "type": "function"
    },
    {
      "inputs": [],
      "name": "finishVoting",
      "outputs": [],
      "stateMutability": "nonpayable",
      "type": "function"
    },
    {
      "inputs": [],
      "name": "getVoteCount",
      "outputs": [
        {
          "internalType": "uint256",
          "name": "",
          "type": "uint256"
        },
        {
          "internalType": "uint256",
          "name": "",
          "type": "uint256"
        }
      ],
      "stateMutability": "view",
      "type": "function"
    },
    {
      "inputs": [
        {
          "internalType": "uint256",
          "name": "",
          "type": "uint256"
        }
      ],
      "name": "options",
      "outputs": [
        {
          "internalType": "bool",
          "name": "",
          "type": "bool"
        }
      ],
      "stateMutability": "view",
      "type": "function"
    },
    {
      "inputs": [],
      "name": "proposal",
      "outputs": [
        {
          "internalType": "string",
          "name": "",
          "type": "string"
        }
      ],
      "stateMutability": "view",
      "type": "function"
    },
    {
      "inputs": [],
      "name": "voteCount",
      "outputs": [
        {
          "internalType": "uint256",
          "name": "",
          "type": "uint256"
        }
      ],
      "stateMutability": "view",
      "type": "function"
    },
    {
      "inputs": [
        {
          "internalType": "address",
          "name": "",
          "type": "address"
        }
      ],
      "name": "voters",
      "outputs": [
        {
          "internalType": "bool",
          "name": "hasVoted",
          "type": "bool"
        },
        {
          "internalType": "uint256",
          "name": "vote",
          "type": "uint256"
        }
      ],
      "stateMutability": "view",
      "type": "function"
    }
  ],
  "bytecode": "0x60806040523480156200001157600080fd5b50604051620011613803806200116183398181016040528101906200003791906200031d565b8060009081620000489190620005b9565b50600267ffffffffffffffff811115620000675762000066620001b9565b5b604051908082528060200260200182016040528015620000965781602001602082028036833780820191505090505b5060019080519060200190620000ae929190620000be565b50600060028190555050620006a0565b82805482825590600052602060002090601f01602090048101928215620001585791602002820160005b838211156200012757835183826101000a81548160ff0219169083151502179055509260200192600101602081600001049283019260010302620000e8565b8015620001565782816101000a81549060ff021916905560010160208160000104928301926001030262000127565b505b5090506200016791906200016b565b5090565b5b80821115620001865760008160009055506001016200016c565b5090565b6000604051905090565b600080fd5b600080fd5b600080fd5b600080fd5b6000601f19601f8301169050919050565b7f4e487b7100000000000000000000000000000000000000000000000000000000600052604160045260246000fd5b620001f382620001a8565b810181811067ffffffffffffffff82111715620002155762000214620001b9565b5b80604052505050565b60006200022a6200018a565b9050620002388282620001e8565b919050565b600067ffffffffffffffff8211156200025b576200025a620001b9565b5b6200026682620001a8565b9050602081019050919050565b60005b838110156200029357808201518184015260208101905062000276565b60008484015250505050565b6000620002b6620002b0846200023d565b6200021e565b905082815260208101848484011115620002d557620002d4620001a3565b5b620002e284828562000273565b509392505050565b600082601f8301126200030257620003016200019e565b5b8151620003148482602086016200029f565b91505092915050565b60006020828403121562000336576200033562000194565b5b600082015167ffffffffffffffff81111562000357576200035662000199565b5b6200036584828501620002ea565b91505092915050565b600081519050919050565b7f4e487b7100000000000000000000000000000000000000000000000000000000600052602260045260246000fd5b60006002820490506001821680620003c157607f821691505b602082108103620003d757620003d662000379565b5b50919050565b60008190508160005260206000209050919050565b60006020601f8301049050919050565b600082821b905092915050565b600060088302620004417fffffffffffffffffffffffffffffffffffffffffffffffffffffffffffffffff8262000402565b6200044d868362000402565b95508019841693508086168417925050509392505050565b6000819050919050565b6000819050919050565b60006200049a620004946200048e8462000465565b6200046f565b62000465565b9050919050565b6000819050919050565b620004b68362000479565b620004ce620004c582620004a1565b8484546200040f565b825550505050565b600090565b620004e5620004d6565b620004f2818484620004ab565b505050565b5b818110156200051a576200050e600082620004db565b600181019050620004f8565b5050565b601f82111562000569576200053381620003dd565b6200053e84620003f2565b810160208510156200054e578190505b620005666200055d85620003f2565b830182620004f7565b50505b505050565b600082821c905092915050565b60006200058e600019846008026200056e565b1980831691505092915050565b6000620005a983836200057b565b9150826002028217905092915050565b620005c4826200036e565b67ffffffffffffffff811115620005e057620005df620001b9565b5b620005ec8254620003a8565b620005f98282856200051e565b600060209050601f8311600181146200063157600084156200061c578287015190505b6200062885826200059b565b86555062000698565b601f1984166200064186620003dd565b60005b828110156200066b5784890151825560018201915060208501945060208101905062000644565b868310156200068b578489015162000687601f8916826200057b565b8355505b6001600288020188555050505b505050505050565b610ab180620006b06000396000f3fe608060405234801561001057600080fd5b506004361061007d5760003560e01c8063a3ec138d1161005b578063a3ec138d146100ec578063c63840711461011d578063e7b3387c1461013b578063f90943031461015a5761007d565b80633eb76b9c14610082578063409e22051461009e578063753ec103146100ce575b600080fd5b61009c6004803603810190610097919061061a565b610164565b005b6100b860048036038101906100b3919061061a565b6103d1565b6040516100c59190610662565b60405180910390f35b6100d6610405565b6040516100e3919061070d565b60405180910390f35b6101066004803603810190610101919061078d565b610493565b6040516101149291906107c9565b60405180910390f35b6101256104c4565b60405161013291906107f2565b60405180910390f35b6101436104ca565b60405161015192919061080d565b60405180910390f35b6101626104f5565b005b600360003373ffffffffffffffffffffffffffffffffffffffff1673ffffffffffffffffffffffffffffffffffffffff16815260200190815260200160002060000160009054906101000a900460ff16156101f4576040517f08c379a00000000000000000000000000000000000000000000000000000000081526004016101eb90610882565b60405180910390fd5b600180549050811061023b576040517f08c379a0000000000000000000000000000000000000000000000000000000008152600401610232906108ee565b60405180910390fd5b600081148061024a5750600181145b610289576040517f08c379a00000000000000000000000000000000000000000000000000000000081526004016102809061095a565b60405180910390fd5b6001600360003373ffffffffffffffffffffffffffffffffffffffff1673ffffffffffffffffffffffffffffffffffffffff16815260200190815260200160002060000160006101000a81548160ff02191690831515021790555080600360003373ffffffffffffffffffffffffffffffffffffffff1673ffffffffffffffffffffffffffffffffffffffff168152602001908152602001600020600101819055503360046000600254815260200190815260200160002060006101000a81548173ffffffffffffffffffffffffffffffffffffffff021916908373ffffffffffffffffffffffffffffffffffffffff16021790555060026000815480929190610392906109a9565b91905055507fb87a61d78bd15221c59b983f6ef032fbde0631e66bfe18d1421fe5a73c16741d336040516103c69190610a00565b60405180910390a150565b600181815481106103e157600080fd5b9060005260206000209060209182820401919006915054906101000a900460ff1681565b6000805461041290610a4a565b80601f016020809104026020016040519081016040528092919081815260200182805461043e90610a4a565b801561048b5780601f106104605761010080835404028352916020019161048b565b820191906000526020600020905b81548152906001019060200180831161046e57829003601f168201915b505050505081565b60036020528060005260406000206000915090508060000160009054906101000a900460ff16908060010154905082565b60025481565b60008060006104d96001610523565b905060006104e76000610523565b905081819350935050509091565b7fa9a7700362c455edb3c43c6637553b81396ea5c46d5052a6c96d8a962e6d5bf460405160405180910390a1565b6000806000905060005b6002548110156105d55783600360006004600085815260200190815260200160002060009054906101000a900473ffffffffffffffffffffffffffffffffffffffff1673ffffffffffffffffffffffffffffffffffffffff1673ffffffffffffffffffffffffffffffffffffffff16815260200190815260200160002060010154036105c25781806105be906109a9565b9250505b80806105cd906109a9565b91505061052d565b5080915050919050565b600080fd5b6000819050919050565b6105f7816105e4565b811461060257600080fd5b50565b600081359050610614816105ee565b92915050565b6000602082840312156106305761062f6105df565b5b600061063e84828501610605565b91505092915050565b60008115159050919050565b61065c81610647565b82525050565b60006020820190506106776000830184610653565b92915050565b600081519050919050565b600082825260208201905092915050565b60005b838110156106b757808201518184015260208101905061069c565b60008484015250505050565b6000601f19601f8301169050919050565b60006106df8261067d565b6106e98185610688565b93506106f9818560208601610699565b610702816106c3565b840191505092915050565b6000602082019050818103600083015261072781846106d4565b905092915050565b600073ffffffffffffffffffffffffffffffffffffffff82169050919050565b600061075a8261072f565b9050919050565b61076a8161074f565b811461077557600080fd5b50565b60008135905061078781610761565b92915050565b6000602082840312156107a3576107a26105df565b5b60006107b184828501610778565b91505092915050565b6107c3816105e4565b82525050565b60006040820190506107de6000830185610653565b6107eb60208301846107ba565b9392505050565b600060208201905061080760008301846107ba565b92915050565b600060408201905061082260008301856107ba565b61082f60208301846107ba565b9392505050565b7f596f75206861766520616c726561647920766f7465642e000000000000000000600082015250565b600061086c601783610688565b915061087782610836565b602082019050919050565b6000602082019050818103600083015261089b8161085f565b9050919050565b7f496e76616c6964206f7074696f6e20696e6465782e0000000000000000000000600082015250565b60006108d8601583610688565b91506108e3826108a2565b602082019050919050565b60006020820190508181036000830152610907816108cb565b9050919050565b7f4f7074696f6e20696e6465782063616e206f6e6c792062652030206f7220312e600082015250565b6000610944602083610688565b915061094f8261090e565b602082019050919050565b6000602082019050818103600083015261097381610937565b9050919050565b7f4e487b7100000000000000000000000000000000000000000000000000000000600052601160045260246000fd5b60006109b4826105e4565b91507fffffffffffffffffffffffffffffffffffffffffffffffffffffffffffffffff82036109e6576109e561097a565b5b600182019050919050565b6109fa8161074f565b82525050565b6000602082019050610a1560008301846109f1565b92915050565b7f4e487b7100000000000000000000000000000000000000000000000000000000600052602260045260246000fd5b60006002820490506001821680610a6257607f821691505b602082108103610a7557610a74610a1b565b5b5091905056fea264697066735822122033ac05646f46d03b96d9fbf1ff701a043cc23cf37ab448e8aee10673cfe2a28564736f6c63430008120033",
  "linkReferences": {},
  "deployedLinkReferences": {}
}