{
  "_format": "hh-sol-artifact-1",
  "contractName": "Voting",
  "sourceName": "contracts/Voting.sol",
  "abi": [
    {
      "inputs": [
        {
          "internalType": "string",
          "name": "_proposal",
          "type": "string"
        },
        {
          "internalType": "bool[]",
          "name": "_options",
          "type": "bool[]"
        }
      ],
      "stateMutability": "nonpayable",
      "type": "constructor"
    },
    {
      "anonymous": false,
      "inputs": [
        {
          "indexed": false,
          "internalType": "address",
          "name": "voter",
          "type": "address"
        }
      ],
      "name": "VoteCast",
      "type": "event"
    },
    {
      "anonymous": false,
      "inputs": [],
      "name": "VotingFinished",
      "type": "event"
    },
    {
      "inputs": [
        {
          "internalType": "uint256",
          "name": "_optionIndex",
          "type": "uint256"
        }
      ],
      "name": "castVote",
      "outputs": [],
      "stateMutability": "nonpayable",
      "type": "function"
    },
    {
      "inputs": [],
      "name": "finishVoting",
      "outputs": [],
      "stateMutability": "nonpayable",
      "type": "function"
    },
    {
      "inputs": [],
      "name": "getVoteCount",
      "outputs": [
        {
          "internalType": "uint256",
          "name": "",
          "type": "uint256"
        },
        {
          "internalType": "uint256",
          "name": "",
          "type": "uint256"
        }
      ],
      "stateMutability": "view",
      "type": "function"
    },
    {
      "inputs": [
        {
          "internalType": "uint256",
          "name": "",
          "type": "uint256"
        }
      ],
      "name": "options",
      "outputs": [
        {
          "internalType": "bool",
          "name": "",
          "type": "bool"
        }
      ],
      "stateMutability": "view",
      "type": "function"
    },
    {
      "inputs": [],
      "name": "proposal",
      "outputs": [
        {
          "internalType": "string",
          "name": "",
          "type": "string"
        }
      ],
      "stateMutability": "view",
      "type": "function"
    },
    {
      "inputs": [],
      "name": "voteCount",
      "outputs": [
        {
          "internalType": "uint256",
          "name": "",
          "type": "uint256"
        }
      ],
      "stateMutability": "view",
      "type": "function"
    },
    {
      "inputs": [
        {
          "internalType": "address",
          "name": "",
          "type": "address"
        }
      ],
      "name": "voters",
      "outputs": [
        {
          "internalType": "bool",
          "name": "hasVoted",
          "type": "bool"
        },
        {
          "internalType": "uint256",
          "name": "vote",
          "type": "uint256"
        }
      ],
      "stateMutability": "view",
      "type": "function"
    }
  ],
  "bytecode": "0x60806040523480156200001157600080fd5b50604051620011a7380380620011a78339818101604052810190620000379190620003e9565b8160009081620000489190620006b9565b5080600190805190602001906200006192919062000072565b5060006002819055505050620007a0565b82805482825590600052602060002090601f016020900481019282156200010c5791602002820160005b83821115620000db57835183826101000a81548160ff02191690831515021790555092602001926001016020816000010492830192600103026200009c565b80156200010a5782816101000a81549060ff0219169055600101602081600001049283019260010302620000db565b505b5090506200011b91906200011f565b5090565b5b808211156200013a57600081600090555060010162000120565b5090565b6000604051905090565b600080fd5b600080fd5b600080fd5b600080fd5b6000601f19601f8301169050919050565b7f4e487b7100000000000000000000000000000000000000000000000000000000600052604160045260246000fd5b620001a7826200015c565b810181811067ffffffffffffffff82111715620001c957620001c86200016d565b5b80604052505050565b6000620001de6200013e565b9050620001ec82826200019c565b919050565b600067ffffffffffffffff8211156200020f576200020e6200016d565b5b6200021a826200015c565b9050602081019050919050565b60005b83811015620002475780820151818401526020810190506200022a565b60008484015250505050565b60006200026a6200026484620001f1565b620001d2565b90508281526020810184848401111562000289576200028862000157565b5b6200029684828562000227565b509392505050565b600082601f830112620002b657620002b562000152565b5b8151620002c884826020860162000253565b91505092915050565b600067ffffffffffffffff821115620002ef57620002ee6200016d565b5b602082029050602081019050919050565b600080fd5b60008115159050919050565b6200031c8162000305565b81146200032857600080fd5b50565b6000815190506200033c8162000311565b92915050565b6000620003596200035384620002d1565b620001d2565b905080838252602082019050602084028301858111156200037f576200037e62000300565b5b835b81811015620003ac57806200039788826200032b565b84526020840193505060208101905062000381565b5050509392505050565b600082601f830112620003ce57620003cd62000152565b5b8151620003e084826020860162000342565b91505092915050565b6000806040838503121562000403576200040262000148565b5b600083015167ffffffffffffffff8111156200042457620004236200014d565b5b62000432858286016200029e565b925050602083015167ffffffffffffffff8111156200045657620004556200014d565b5b6200046485828601620003b6565b9150509250929050565b600081519050919050565b7f4e487b7100000000000000000000000000000000000000000000000000000000600052602260045260246000fd5b60006002820490506001821680620004c157607f821691505b602082108103620004d757620004d662000479565b5b50919050565b60008190508160005260206000209050919050565b60006020601f8301049050919050565b600082821b905092915050565b600060088302620005417fffffffffffffffffffffffffffffffffffffffffffffffffffffffffffffffff8262000502565b6200054d868362000502565b95508019841693508086168417925050509392505050565b6000819050919050565b6000819050919050565b60006200059a620005946200058e8462000565565b6200056f565b62000565565b9050919050565b6000819050919050565b620005b68362000579565b620005ce620005c582620005a1565b8484546200050f565b825550505050565b600090565b620005e5620005d6565b620005f2818484620005ab565b505050565b5b818110156200061a576200060e600082620005db565b600181019050620005f8565b5050565b601f82111562000669576200063381620004dd565b6200063e84620004f2565b810160208510156200064e578190505b620006666200065d85620004f2565b830182620005f7565b50505b505050565b600082821c905092915050565b60006200068e600019846008026200066e565b1980831691505092915050565b6000620006a983836200067b565b9150826002028217905092915050565b620006c4826200046e565b67ffffffffffffffff811115620006e057620006df6200016d565b5b620006ec8254620004a8565b620006f98282856200061e565b600060209050601f8311600181146200073157600084156200071c578287015190505b6200072885826200069b565b86555062000798565b601f1984166200074186620004dd565b60005b828110156200076b5784890151825560018201915060208501945060208101905062000744565b868310156200078b578489015162000787601f8916826200067b565b8355505b6001600288020188555050505b505050505050565b6109f780620007b06000396000f3fe608060405234801561001057600080fd5b506004361061007d5760003560e01c8063a3ec138d1161005b578063a3ec138d146100ec578063c63840711461011d578063e7b3387c1461013b578063f90943031461015a5761007d565b80633eb76b9c14610082578063409e22051461009e578063753ec103146100ce575b600080fd5b61009c600480360381019061009791906105cc565b610164565b005b6100b860048036038101906100b391906105cc565b610383565b6040516100c59190610614565b60405180910390f35b6100d66103b7565b6040516100e391906106bf565b60405180910390f35b6101066004803603810190610101919061073f565b610445565b60405161011492919061077b565b60405180910390f35b610125610476565b60405161013291906107a4565b60405180910390f35b61014361047c565b6040516101519291906107bf565b60405180910390f35b6101626104a7565b005b600360003373ffffffffffffffffffffffffffffffffffffffff1673ffffffffffffffffffffffffffffffffffffffff16815260200190815260200160002060000160009054906101000a900460ff16156101f4576040517f08c379a00000000000000000000000000000000000000000000000000000000081526004016101eb90610834565b60405180910390fd5b600180549050811061023b576040517f08c379a0000000000000000000000000000000000000000000000000000000008152600401610232906108a0565b60405180910390fd5b6001600360003373ffffffffffffffffffffffffffffffffffffffff1673ffffffffffffffffffffffffffffffffffffffff16815260200190815260200160002060000160006101000a81548160ff02191690831515021790555080600360003373ffffffffffffffffffffffffffffffffffffffff1673ffffffffffffffffffffffffffffffffffffffff168152602001908152602001600020600101819055503360046000600254815260200190815260200160002060006101000a81548173ffffffffffffffffffffffffffffffffffffffff021916908373ffffffffffffffffffffffffffffffffffffffff16021790555060026000815480929190610344906108ef565b91905055507fb87a61d78bd15221c59b983f6ef032fbde0631e66bfe18d1421fe5a73c16741d336040516103789190610946565b60405180910390a150565b6001818154811061039357600080fd5b9060005260206000209060209182820401919006915054906101000a900460ff1681565b600080546103c490610990565b80601f01602080910402602001604051908101604052809291908181526020018280546103f090610990565b801561043d5780601f106104125761010080835404028352916020019161043d565b820191906000526020600020905b81548152906001019060200180831161042057829003601f168201915b505050505081565b60036020528060005260406000206000915090508060000160009054906101000a900460ff16908060010154905082565b60025481565b600080600061048b60016104d5565b9050600061049960006104d5565b905081819350935050509091565b7fa9a7700362c455edb3c43c6637553b81396ea5c46d5052a6c96d8a962e6d5bf460405160405180910390a1565b6000806000905060005b6002548110156105875783600360006004600085815260200190815260200160002060009054906101000a900473ffffffffffffffffffffffffffffffffffffffff1673ffffffffffffffffffffffffffffffffffffffff1673ffffffffffffffffffffffffffffffffffffffff1681526020019081526020016000206001015403610574578180610570906108ef565b9250505b808061057f906108ef565b9150506104df565b5080915050919050565b600080fd5b6000819050919050565b6105a981610596565b81146105b457600080fd5b50565b6000813590506105c6816105a0565b92915050565b6000602082840312156105e2576105e1610591565b5b60006105f0848285016105b7565b91505092915050565b60008115159050919050565b61060e816105f9565b82525050565b60006020820190506106296000830184610605565b92915050565b600081519050919050565b600082825260208201905092915050565b60005b8381101561066957808201518184015260208101905061064e565b60008484015250505050565b6000601f19601f8301169050919050565b60006106918261062f565b61069b818561063a565b93506106ab81856020860161064b565b6106b481610675565b840191505092915050565b600060208201905081810360008301526106d98184610686565b905092915050565b600073ffffffffffffffffffffffffffffffffffffffff82169050919050565b600061070c826106e1565b9050919050565b61071c81610701565b811461072757600080fd5b50565b60008135905061073981610713565b92915050565b60006020828403121561075557610754610591565b5b60006107638482850161072a565b91505092915050565b61077581610596565b82525050565b60006040820190506107906000830185610605565b61079d602083018461076c565b9392505050565b60006020820190506107b9600083018461076c565b92915050565b60006040820190506107d4600083018561076c565b6107e1602083018461076c565b9392505050565b7f596f75206861766520616c726561647920766f7465642e000000000000000000600082015250565b600061081e60178361063a565b9150610829826107e8565b602082019050919050565b6000602082019050818103600083015261084d81610811565b9050919050565b7f496e76616c6964206f7074696f6e20696e6465782e0000000000000000000000600082015250565b600061088a60158361063a565b915061089582610854565b602082019050919050565b600060208201905081810360008301526108b98161087d565b9050919050565b7f4e487b7100000000000000000000000000000000000000000000000000000000600052601160045260246000fd5b60006108fa82610596565b91507fffffffffffffffffffffffffffffffffffffffffffffffffffffffffffffffff820361092c5761092b6108c0565b5b600182019050919050565b61094081610701565b82525050565b600060208201905061095b6000830184610937565b92915050565b7f4e487b7100000000000000000000000000000000000000000000000000000000600052602260045260246000fd5b600060028204905060018216806109a857607f821691505b6020821081036109bb576109ba610961565b5b5091905056fea26469706673582212202d9e5c89b2140feae1c4bbc7ee0702706cea83f4ab60b6078a51e2d5d82ec39e64736f6c63430008120033",
  "linkReferences": {},
  "deployedLinkReferences": {}
}